:100000000C945D000C9485000C9485000C94850084
:100010000C9485000C9485000C9485000C9485004C
:100020000C9485000C9485000C9485000C9485003C
:100030000C9485000C9485000C9485000C9485002C
:100040000C9411020C9485000C9481020C945B02B8
:100050000C9485000C9485000C9485000C9485000C
:100060000C9485000C9485000000000024002700FB
:100070002A0000000000250028002B0004040404CE
:100080000404040402020202020203030303030342
:10009000010204081020408001020408102001021F
:1000A00004081020000000080002010000030407FB
:1000B0000000000000000000D10311241FBECFEF9C
:1000C000D8E0DEBFCDBF11E0A0E0B1E0E0E5F8E0B0
:1000D00002C005900D92A631B107D9F721E0A6E143
:1000E000B1E001C01D92AC3BB207E1F710E0CDE5F5
:1000F000D0E004C02197FE010E942004CC35D10736
:10010000C9F70E94B3020C9426040C940000AF922D
:10011000BF92CF92DF92EF92FF920F931F93CF93F4
:10012000DF936C017B018B01040F151FEB015E0156
:10013000AE18BF08C017D10759F06991D601ED91EB
:10014000FC910190F081E02DC6010995892B79F78A
:10015000C501DF91CF911F910F91FF90EF90DF903C
:10016000CF90BF90AF900895FC01538D448D252F03
:1001700030E0842F90E0821B930B541710F0CF9641
:10018000089501970895FC01918D828D981761F073
:10019000A28DAE0FBF2FB11D5D968C91928D9F5F8A
:1001A0009F73928F90E008958FEF9FEF0895FC0169
:1001B000918D828D981731F0828DE80FF11D858D1C
:1001C00090E008958FEF9FEF0895FC01918D228DAF
:1001D000892F90E0805C9F4F821B91098F73992734
:1001E000089586E191E00E94E50021E0892B09F461
:1001F00020E0822F089580E090E0892B29F00E9472
:10020000F10081110C9400000895FC01A48DA80F49
:10021000B92FB11DA35ABF4F2C91848D90E0019648
:100220008F739927848FA689B7892C93A089B18968
:100230008C91837080648C93938D848D981306C009
:100240000288F389E02D80818F7D80830895EF926D
:10025000FF920F931F93CF93DF93EC0181E0888F80
:100260009B8D8C8D98131AC0E889F989808185FF50
:1002700015C09FB7F894EE89FF896083E889F989F2
:1002800080818370806480839FBF81E090E0DF91F4
:10029000CF911F910F91FF90EF900895F62E0B8D47
:1002A00010E00F5F1F4F0F731127E02E8C8D8E1102
:1002B0000CC00FB607FCFACFE889F989808185FF69
:1002C000F5CFCE010E940501F1CFEB8DEC0FFD2F94
:1002D000F11DE35AFF4FF0829FB7F8940B8FEA8924
:1002E000FB8980818062CFCFCF93DF93EC01888D33
:1002F0008823B9F0AA89BB89E889F9898C9185FDA1
:1003000003C0808186FD0DC00FB607FCF7CF8C912E
:1003100085FFF2CF808185FFEDCFCE010E940501E0
:10032000E9CFDF91CF91089590E0FC01EC55FF4FAC
:100330002491FC01E057FF4F3491FC01E458FF4F3A
:10034000E491EE23C9F0222339F0233001F1A8F41F
:10035000213019F1223029F1F0E0EE0FFF1FEE58A5
:10036000FF4FA591B4918FB7F894EC91611126C01D
:1003700030953E233C938FBF08952730A9F0283055
:10038000C9F0243049F7809180008F7D03C08091AF
:1003900080008F7780938000DFCF84B58F7784BD16
:1003A000DBCF84B58F7DFBCF8091B0008F778093BA
:1003B000B000D2CF8091B0008F7DF9CF3E2BDACF45
:1003C000CF93DF9390E0FC01E057FF4F24918458D6
:1003D0009F4FFC0184918823D1F090E0880F991FF2
:1003E000FC01E859FF4FA591B491FC01EE58FF4F75
:1003F000C591D49161110EC09FB7F8948C91E22FF2
:10040000E0958E238C932881E223E8839FBFDF91C0
:10041000CF9108958FB7F894EC91E22BEC938FBFB6
:10042000F6CF1F920F920FB60F9211242F933F9386
:100430008F939F93AF93BF938091B8019091B9012F
:10044000A091BA01B091BB013091B70123E0230F15
:100450002D3758F50196A11DB11D2093B70180934A
:10046000B8019093B901A093BA01B093BB018091F8
:10047000B3019091B401A091B501B091B60101967C
:10048000A11DB11D8093B3019093B401A093B50158
:10049000B093B601BF91AF919F918F913F912F91F2
:1004A0000F900FBE0F901F90189526E8230F02960D
:1004B000A11DB11DD2CF1F920F920FB60F92112422
:1004C0002F933F934F935F936F937F938F939F935C
:1004D000AF93BF93EF93FF9386E191E00E940501F4
:1004E000FF91EF91BF91AF919F918F917F916F910C
:1004F0005F914F913F912F910F900FBE0F901F90E2
:1005000018951F920F920FB60F9211242F938F936D
:100510009F93EF93FF93E0912601F0912701808153
:10052000E0912C01F0912D0182FD1BC09081809102
:100530002F018F5F8F7320913001821741F0E0917E
:100540002F01F0E0EA5EFE4F958F80932F01FF911F
:10055000EF919F918F912F910F900FBE0F901F9051
:1005600018958081F4CFCF93DF93CDB7DEB7A197F5
:100570000FB6F894DEBF0FBECDBF789484B582600D
:1005800084BD84B5816084BD85B5826085BD85B537
:10059000816085BD80916E00816080936E001092B5
:1005A0008100809181008260809381008091810030
:1005B00081608093810080918000816080938000C1
:1005C0008091B10084608093B1008091B00081601F
:1005D0008093B00080917A00846080937A0080914B
:1005E0007A00826080937A0080917A0081608093A3
:1005F0007A0080917A00806880937A001092C1001E
:10060000E0912601F091270182E08083E0912201B0
:10061000F09123011082E0912401F09125018FECEB
:10062000808310922E01E0912A01F0912B0186E047
:100630008083E0912801F09129018081806180838D
:10064000E0912801F0912901808188608083E09108
:100650002801F0912901808180688083E091280140
:10066000F091290180818F7D808360E08FE00E947E
:10067000E00161E08BE00E94E00161E08CE00E941B
:10068000E00161E08DE00E94E00181E4382E9AE013
:10069000892E912CA12CB12C20E0C22E20E0D22E4C
:1006A00030927C0080917A00806480937A008091FF
:1006B0007A0086FDFCCF80917800E0907900FE2CD6
:1006C000E82E27010F2C000C66087708F7FE53C0B0
:1006D0006DE286E191E00E94270122273327A901DC
:1006E000241935094609570919A28E010F5D1F4FBC
:1006F000CA01B901A50194010E94FE03605DF801E1
:1007000062938F01211531054105510589F70115C6
:10071000110561F001900020E9F73197AF01401B0E
:10072000510BB80186E191E00E94870042E050E061
:1007300062E171E086E191E00E94870061E08BE078
:100740000E94940160E0F5E8EF16F1040CF461E01A
:100750008CE00E94940161E08DE00E949401C1143C
:10076000D10409F49DCF0E94F100882309F498CFA9
:100770000E94000095CFA301920119A28E010F5D86
:100780001F4FCA01B901A50194010E94FE03605DDB
:10079000F80162938F01211531054105510589F753
:1007A000B6CFE6E1F1E01382128288EE93E0A0E09A
:1007B000B0E084839583A683B78384E091E091833E
:1007C000808385EC90E09587848784EC90E0978720
:1007D000868780EC90E0918B808B81EC90E0938B0E
:1007E000828B82EC90E0958B848B86EC90E0978BEB
:1007F000868B118E128E138E148E0895A1E21A2EFE
:10080000AA1BBB1BFD010DC0AA1FBB1FEE1FFF1FB4
:10081000A217B307E407F50720F0A21BB30BE40B04
:10082000F50B661F771F881F991F1A9469F760954B
:100830007095809590959B01AC01BD01CF01089505
:10084000EE0FFF1F0590F491E02D0994F894FFCF6F
:100850000000000027018700B4007401E500C30018
:06086000D7000D0A0000A4
:00000001FF
